:020000040800F2
:1000000000500020C93A0008D5390008D739000847
:10001000D9390008DB390008DD390008000000008C
:10002000000000000000000000000000DF390008B0
:10003000E139000800000000E3390008E539000854
:10004000113B0008113B0008113B0008113B000860
:10005000113B0008113B0008113B0008113B000850
:10006000113B0008113B0008113B0008113B000840
:10007000113B0008113B0008113B0008113B000830
:10008000113B0008113B0008113B0008113B000820
:10009000113B0008113B0008113B0008113B000810
:1000A000F1390008013A0008113A0008213A000825
:1000B000313A0008413A0008513A0008113B000863
:1000C000113B0008113B0008113B0008113B0008E0
:1000D000113B0008113B0008613A0008113B000881
:1000E000713A0008113B0008113B000800000000B5
:1000F0000000000000000000000000000000000000
:0C01000000000000000000005FF808F1A3
:1001100010B5054C237833B9044B13B10448AFF341
:1001200000800123237010BDF001002000000000BA
:10013000485F000808B5034B1BB103490348AFF300
:10014000008008BD00000000F4010020485F0008A6
:1001500081F0004102E000BF83F0004330B54FEA78
:1001600041044FEA430594EA050F08BF90EA020FE5
:100170001FBF54EA000C55EA020C7FEA645C7FEA78
:10018000655C00F0E2804FEA5454D4EB5555B8BF9B
:100190006D420CDD2C4480EA020281EA030382EA0C
:1001A000000083EA010180EA020281EA0303362D9E
:1001B00088BF30BD11F0004F4FEA01314FF4801C71
:1001C0004CEA113102D0404261EB410113F0004F83
:1001D0004FEA03334CEA133302D0524263EB43033A
:1001E00094EA050F00F0A780A4F10104D5F1200ED8
:1001F0000DDB02FA0EFC22FA05F2801841F1000133
:1002000003FA0EF2801843FA05F359410EE0A5F106
:1002100020050EF1200E012A03FA0EFC28BF4CF037
:10022000020C43FA05F3C01851EBE37101F00045ED
:1002300007D54FF0000EDCF1000C7EEB00006EEBFA
:100240000101B1F5801F1BD3B1F5001F0CD3490884
:100250005FEA30004FEA3C0C04F101044FEA4452DB
:1002600012F5800F80F09A80BCF1004F08BF5FEA62
:10027000500C50F1000041EB045141EA050130BD42
:100280005FEA4C0C404141EB010111F4801FA4F1E5
:100290000104E9D191F0000F04BF01460020B1FA3A
:1002A00081F308BF2033A3F10B03B3F120020CDA72
:1002B0000C3208DD02F1140CC2F10C0201FA0CF050
:1002C00021FA02F10CE002F11402D8BFC2F1200CB5
:1002D00001FA02F120FA0CFCDCBF41EA0C0190406B
:1002E000E41AA2BF01EB0451294330BD6FEA0404B4
:1002F0001F3C1CDA0C340EDC04F11404C4F120029F
:1003000020FA04F001FA02F340EA030021FA04F3B0
:1003100045EA030130BDC4F10C04C4F1200220FA07
:1003200002F001FA04F340EA0300294630BD21FA45
:1003300004F0294630BD94F0000F83F4801306BF0B
:1003400081F480110134013D4EE77FEA645C18BFFF
:100350007FEA655C29D094EA050F08BF90EA020F96
:1003600005D054EA000C04BF1946104630BD91EA8E
:10037000030F1EBF0021002030BD5FEA545C05D191
:100380004000494128BF41F0004130BD14F58004D0
:100390003CBF01F5801130BD01F0004545F0FE4144
:1003A00041F470014FF0000030BD7FEA645C1ABF79
:1003B000194610467FEA655C1CBF0B46024650EAB0
:1003C000013406BF52EA033591EA030F41F40021DC
:1003D00030BD00BF90F0000F04BF0021704730B562
:1003E0004FF4806404F132044FF000054FF0000137
:1003F00050E700BF90F0000F04BF0021704730B5F8
:100400004FF4806404F1320410F0004548BF4042CC
:100410004FF000013EE700BF42004FEAE2014FEA21
:1004200031014FEA02701FBF12F07F4393F07F4FFC
:1004300081F06051704732F07F4208BF704793F0FF
:100440007F4F04BF41F40021704730B54FF4607412
:1004500001F0004521F000411CE700BF50EA010215
:1004600008BF704730B54FF000050AE050EA0102BE
:1004700008BF704730B511F0004502D5404261EB2E
:1004800041014FF4806404F132045FEA915C3FF46F
:10049000D8AE4FF003025FEADC0C18BF03325FEA0C
:1004A000DC0C18BF033202EBDC02C2F1200300FABD
:1004B00003FC20FA02F001FA03FE40EA0E0021FAE2
:1004C00002F11444BDE600BF70B54FF0FF0C4CF4D0
:1004D000E06C1CEA11541DBF1CEA135594EA0C0F82
:1004E00095EA0C0F00F0DEF82C4481EA030621EABD
:1004F0004C5123EA4C5350EA013518BF52EA0335F8
:1005000041F4801143F4801338D0A0FB02CE4FF0A9
:100510000005E1FB02E506F00042E0FB03E54FF0D9
:100520000006E1FB03569CF0000F18BF4EF0010ED1
:10053000A4F1FF04B6F5007F64F5407404D25FEACD
:100540004E0E6D4146EB060642EAC62141EA555180
:100550004FEAC52040EA5E504FEACE2EB4F1FD0CC2
:1005600088BFBCF5E06F1ED8BEF1004F08BF5FEA40
:10057000500E50F1000041EB045170BD06F00046F2
:1005800046EA010140EA020081EA0301B4EB5C049F
:10059000C2BFD4EB0C0541EA045170BD41F4801197
:1005A0004FF0000E013C00F3AB8014F1360FDEBFBC
:1005B000002001F0004170BDC4F10004203C35DA98
:1005C0000C341BDC04F11404C4F1200500FA05F31B
:1005D00020FA04F001FA05F240EA020001F00042BC
:1005E00021F0004110EBD37021FA04F642EB060132
:1005F0005EEA430E08BF20EAD37070BDC4F10C045C
:10060000C4F1200500FA04F320FA05F001FA04F21F
:1006100040EA020001F0004110EBD37041F100010B
:100620005EEA430E08BF20EAD37070BDC4F1200516
:1006300000FA05F24EEA020E20FA04F301FA05F27E
:1006400043EA020321FA04F001F0004121FA04F226
:1006500020EA020000EBD3705EEA430E08BF20EAF6
:10066000D37070BD94F0000F0FD101F00046400030
:1006700041EB010111F4801F08BF013CF7D041EAB2
:10068000060195F0000F18BF704703F000465200B6
:1006900043EB030313F4801F08BF013DF7D043EA87
:1006A0000603704794EA0C0F0CEA135518BF95EA3D
:1006B0000C0F0CD050EA410618BF52EA4306D1D1C4
:1006C00081EA030101F000414FF0000070BD50EAE3
:1006D000410606BF1046194652EA430619D094EA6D
:1006E0000C0F02D150EA013613D195EA0C0F05D157
:1006F00052EA03361CBF104619460AD181EA0301AB
:1007000001F0004141F0FE4141F470014FF0000062
:1007100070BD41F0FE4141F4780170BD70B54FF0FD
:10072000FF0C4CF4E06C1CEA11541DBF1CEA13557D
:1007300094EA0C0F95EA0C0F00F0A7F8A4EB05045F
:1007400081EA030E52EA03354FEA013100F0888056
:100750004FEA03334FF0805545EA131343EA12631F
:100760004FEA022245EA111545EA10654FEA0026D4
:100770000EF000419D4208BF964244F1FD0404F58D
:10078000407402D25B084FEA3202B61A65EB0305E9
:100790005B084FEA32024FF480104FF4002CB6EBA6
:1007A000020E75EB030E22BFB61A754640EA0C0026
:1007B0005B084FEA3202B6EB020E75EB030E22BF66
:1007C000B61A754640EA5C005B084FEA3202B6EBA7
:1007D000020E75EB030E22BFB61A754640EA9C0066
:1007E0005B084FEA3202B6EB020E75EB030E22BF36
:1007F000B61A754640EADC0055EA060E18D04FEAF4
:10080000051545EA16754FEA06164FEAC30343EA93
:1008100052734FEAC2025FEA1C1CC0D111F4801F60
:100820000BD141EA00014FF000004FF0004CB6E759
:1008300011F4801F04BF01430020B4F1FD0C88BFF8
:10084000BCF5E06F3FF6AFAEB5EB030C04BFB6EB03
:10085000020C5FEA500C50F1000041EB045170BDF6
:100860000EF0004E4EEA113114EB5C04C2BFD4EB23
:100870000C0541EA045170BD41F480114FF0000EA7
:10088000013C90E645EA060E8DE60CEA135594EA23
:100890000C0F08BF95EA0C0F3FF43BAF94EA0C0F26
:1008A0000AD150EA01347FF434AF95EA0C0F7FF49B
:1008B00025AF104619462CE795EA0C0F06D152EAEF
:1008C00003353FF4FDAE1046194622E750EA4106D3
:1008D00018BF52EA43067FF4C5AE50EA41047FF4E4
:1008E0000DAF52EA43057FF4EBAE12E74FF0FF3C49
:1008F00006E000BF4FF0010C02E000BF4FF0010C1A
:100900004DF804CD4FEA410C7FEA6C5C4FEA430C92
:1009100018BF7FEA6C5C1BD001B050EA410C0CBFE1
:1009200052EA430C91EA030F02BF90EA020F002043
:10093000704710F1000F91EA030F58BF994208BFAA
:1009400090422CBFD8176FEAE37040F00100704767
:100950004FEA410C7FEA6C5C02D150EA013C07D1BE
:100960004FEA430C7FEA6C5CD6D152EA033CD3D009
:100970005DF8040B704700BF8446104662468C4603
:100980001946634600E000BF01B5FFF7B7FF002836
:1009900048BF10F1000F01BD4DF808EDFFF7F4FF5F
:1009A0000CBF012000205DF808FB00BF4DF808EDEA
:1009B000FFF7EAFF34BF012000205DF808FB00BF0D
:1009C0004DF808EDFFF7E0FF94BF012000205DF82F
:1009D00008FB00BF4DF808EDFFF7CEFF94BF0120E4
:1009E00000205DF808FB00BF4DF808EDFFF7C4FFDD
:1009F00034BF012000205DF808FB00BF4FEA410C26
:100A00007FEA6C5C02D150EA013C0AD14FEA430C08
:100A10007FEA6C5C02D152EA033C02D14FF0000045
:100A200070474FF0010070474FEA4102B2F1E043D6
:100A300024BFB3F5001CDCF1FE5C0DD901F0004CC5
:100A40004FEAC0024CEA5070B2F1004F40EB830015
:100A500008BF20F00100704711F0804F21D113F141
:100A60003872BCBF01F00040704741F480114FEA7A
:100A70005252C2F11802C2F1200C10FA0CF320FA03
:100A800002F018BF40F001004FEAC1234FEAD32320
:100A900003FA0CFC40EA0C0023FA02F34FEA43038A
:100AA000CCE77FEA625307D150EA01331EBF4FF013
:100AB000FE4040F44000704701F0004040F0FE402E
:100AC00040F40000704700BF80F0004002E000BF2B
:100AD00081F0004142001FBF5FEA410392EA030F29
:100AE0007FEA226C7FEA236C6AD04FEA1262D2EB73
:100AF0001363C1BFD218414048404140B8BF5B4278
:100B0000192B88BF704710F0004F40F4000020F010
:100B10007F4018BF404211F0004F41F4000121F026
:100B20007F4118BF494292EA030F3FD0A2F1010270
:100B300041FA03FC10EB0C00C3F1200301FA03F1AE
:100B400000F0004302D5494260EB4000B0F5000FD1
:100B500013D3B0F1807F06D340084FEA310102F190
:100B60000102FE2A51D2B1F1004F40EBC25008BF42
:100B700020F0010040EA03007047490040EB00000C
:100B800010F4000FA2F10102EDD1B0FA80FCACF13B
:100B9000080CB2EB0C0200FA0CF0AABF00EBC2503A
:100BA00052421843BCBFD0401843704792F0000F28
:100BB00081F4000106BF80F400000132013BB5E77B
:100BC0004FEA41037FEA226C18BF7FEA236C21D0F1
:100BD00092EA030F04D092F0000F08BF0846704756
:100BE00090EA010F1CBF0020704712F07F4F04D124
:100BF000400028BF40F00040704712F100723CBF37
:100C000000F50000704700F0004343F0FE4040F460
:100C1000000070477FEA226216BF08467FEA23631E
:100C20000146420206BF5FEA412390EA010F40F409
:100C3000800070474FF0000304E000BF10F0004355
:100C400048BF40425FEA000C08BF704743F096433C
:100C500001464FF000001CE050EA010208BF704757
:100C60004FF000030AE000BF50EA010208BF7047DE
:100C700011F0004302D5404261EB41015FEA010CF3
:100C800002BF84460146002043F0B64308BFA3F1EB
:100C90008053A3F50003BCFA8CF2083AA3EBC253CD
:100CA00010DB01FA02FC634400FA02FCC2F12002EC
:100CB000BCF1004F20FA02F243EB020008BF20F023
:100CC0000100704702F1200201FA02FCC2F1200289
:100CD00050EA4C0021FA02F243EB020008BF20EA7E
:100CE000DC7070474FF0FF3C06E000BF4FF0010C96
:100CF00002E000BF4FF0010C4DF804CD4FEA400276
:100D00004FEA41037FEA226C18BF7FEA236C11D0BF
:100D100001B052EA530C18BF90EA010F58BFB2EB72
:100D2000030088BFC81738BF6FEAE17018BF40F0F2
:100D3000010070477FEA226C02D15FEA402C05D1A6
:100D40007FEA236CE4D15FEA412CE1D05DF8040B2B
:100D5000704700BF844608466146FFE70FB5FFF7BE
:100D6000C9FF002848BF10F1000F0FBD4DF808ED76
:100D7000FFF7F4FF0CBF012000205DF808FB00BF67
:100D80004DF808EDFFF7EAFF34BF012000205DF8C1
:100D900008FB00BF4DF808EDFFF7E0FF94BF01200E
:100DA00000205DF808FB00BF4DF808EDFFF7D2FF0B
:100DB00094BF012000205DF808FB00BF4DF808ED4E
:100DC000FFF7C8FF34BF012000205DF808FB00BF1B
:100DD0004FEA4002B2F1FE4F0FD34FF09E03B3EB48
:100DE00012620DD94FEA002343F0004310F0004F88
:100DF00023FA02F018BF404270474FF000007047DE
:100E000012F1610F01D1420205D110F0004008BF7C
:100E10006FF0004070474FF000007047034613F832
:100E2000012B002AFBD1181A0138704710B504466F
:100E30000E4B18784FF47A73B3FBF0F30C4A10683A
:100E4000B0FBF3F000F08CF868B90F2C01D9012049
:100E50000AE0002221464FF0FF3000F041F8034B3A
:100E60005C60002000E0012010BD00BF00000020F9
:100E70001800002008B5074A136843F010031360F8
:100E8000032000F01BF80020FFF7D0FF02F08AFCDF
:100E9000002008BD00200240034A1168034B1B7864
:100EA0000B441360704700BFC40300200000002003
:100EB000014B1868704700BFC4030020074AD3687D
:100EC00023F4E0631B041B0C000200F4E0601843F1
:100ED00040F0BF6040F40030D060704700ED00E0AB
:100EE00030B4174BDB68C3F30223C3F10704042CAF
:100EF00028BF04241D1D062D18D9033B4FF0FF35D4
:100F000005FA04F421EA0401994005FA03F322EA00
:100F10000303194300280BDB0901C9B200F160404B
:100F200000F5614080F8001330BC70470023E5E70E
:100F300000F00F000901C9B2024B1954F4E700BFD9
:100F400000ED00E014ED00E000F01F024009012375
:100F50009340024A42F82030704700BF00E100E0B1
:100F60000138B0F1807F0AD2064B5860064AF02162
:100F700082F823100020986007221A607047012031
:100F8000704700BF10E000E000ED00E008B502F09F
:100F9000B1FA08BD08B590F82130022B03D0042324
:100FA0008363012008BD0268136823F00E031360F9
:100FB0000268136823F0010313600368194A93421F
:100FC00014D0143293421FD0143293421ED01432E4
:100FD00093421ED0143293421ED01432934202D058
:100FE0004FF0807203E04FF4801200E001220E4BBC
:100FF0005A60012380F82130002380F82030436BB1
:101000006BB198470020CDE71022F0E74FF48072D3
:10101000EDE74FF48052EAE74FF48032E7E7002033
:10102000C0E700BF0800024000000240F0B482B0F8
:1010300000263546A1E0002C59D0012C00D1CE6805
:10104000FF2B68D88446FF2B68D8AC00DCF8002062
:101050000F27A74022EA070206FA04F42243CCF83D
:1010600000204A6812F0805F00F086805E4A946932
:1010700044F001049461926902F001020192019A24
:10108000AC08A71C594A52F8272005F00307BF00F7
:101090004FF00F0C0CFA07FC22EA0C0C544A904259
:1010A00042D002F5806290427FD002F58062904289
:1010B0007DD002F58062904234D0042235E04D4F5D
:1010C000BC4214D00BD94C4FBC4210D007F580372E
:1010D000BC420CD0A7F58017BC42B1D107E0A7F500
:1010E0008017BC4203D007F58037BC42A8D18C687A
:1010F0007CB1012C08D042610826A1E7CE680836F1
:101100009EE7CE680C369BE70261082698E700262A
:1011100096E7042694E700F1040C94E7A5F108048F
:10112000A40093E7032200E00022BA4042EA0C0246
:1011300002342E4F47F824204A6812F4803F38D0FA
:101140002E4C22681A4322604A6812F4003F36D0BF
:101150002A4C62681A4362604A6812F4801F34D0D5
:10116000264CA2681A43A2604A6812F4001F32D0CB
:10117000224CE2681343E36001350F2D31D8012280
:10118000AA400B6813409A42F6D14C68122CB8D092
:1011900095D8022CB2D07FF64EAF032CB7D0112CCD
:1011A0007FF44EAFCE6804364AE70122BDE7022243
:1011B000BBE7124C226822EA03022260C4E70F4C0C
:1011C000626822EA03026260C6E70C4CA26822EA67
:1011D0000302A260C8E7094CE26822EA0303E36065
:1011E000CAE702B0F0BC70470010024000000140A6
:1011F00000080140000021100000311000040140EF
:101200008368194201D1002070470120704712B94C
:1012100009040161704701617047704708B5054BCB
:101220005B69034200D108BD024B5861FFF7F5FF2F
:10123000F9E700BF0004014082B0084B1B68084A70
:10124000A2FB03235B0A00FB03F0019000BF019B9C
:101250005A1E0192002BF9D102B0704718000020ED
:10126000D34D621070B582B00446036813F0010FCD
:101270002CD0AB4B5B6803F00C03042B1DD0A84BA8
:101280005B6803F00C03082B12D06368B3F5803F52
:1012900041D0002B55D103F1804303F504331A6884
:1012A00022F480321A601A6822F480221A6037E031
:1012B0009B4B5B6813F4803FE7D0994B1B6813F49A
:1012C000003F03D06368002B00F0AE81236813F069
:1012D000020F76D0924B5B6813F00C0F5FD0904BEF
:1012E0005B6803F00C03082B54D02369002B00F03B
:1012F0008A808C4B01221A60FFF7DAFD0546884B85
:101300001B6813F0020F75D1FFF7D2FD401B0228B6
:10131000F5D903208BE1824A136843F480331360CC
:10132000636843B3FFF7C4FD05467D4B1B6813F4A8
:10133000003FCBD1FFF7BCFD401B6428F5D903204B
:1013400075E1B3F5A02F09D0754B1A6822F48032ED
:101350001A601A6822F480221A60E1E703F18043E0
:10136000A3F53C331A6842F480221A601A6842F4EA
:1013700080321A60D4E7FFF79BFD0546684B1B6877
:1013800013F4003FA2D0FFF793FD401B6428F5D96A
:1013900003204CE1624B5B6813F4803FA5D1604BA6
:1013A0001B6813F0020F04D02369012B01D0012028
:1013B0003DE15B4A136823F0F803616943EAC10326
:1013C0001360236813F0080F32D0A369002B5BD0A1
:1013D000554B01221A60FFF76BFD0546504B5B6AC7
:1013E00013F0020F21D1FFF763FD401B0228F5D94E
:1013F00003201CE14A4A136823F0F803616943EAB9
:10140000C1031360DDE7474B00221A60FFF750FD70
:101410000546434B1B6813F0020FD2D0FFF748FD7F
:10142000401B0228F5D9032001E10120FFF704FF4A
:10143000236813F0040F00F09780394BDB6913F039
:10144000805F33D1364BDA6942F08052DA61DB6972
:1014500003F080530193019B0125344B1B6813F467
:10146000807F25D0E368012B36D0002B4CD103F1CF
:10147000804303F504331A6A22F001021A621A6AE1
:1014800022F004021A622CE0274B00221A60FFF7B8
:101490000FFD0546224B5B6A13F0020FC8D0FFF721
:1014A00007FD401B0228F5D90320C0E00025D4E742
:1014B0001E4A136843F480731360FFF7F9FC064675
:1014C0001A4B1B6813F4807FCCD1FFF7F1FC801B13
:1014D0006428F5D90320AAE0114A136A43F00103F6
:1014E0001362E36873B3FFF7E3FC06460C4B1B6A19
:1014F00013F0020F37D1FFF7DBFC801B41F288337A
:101500009842F3D9032092E0052B11D0044B1A6ABC
:1015100022F001021A621A6A22F004021A62E0E75B
:10152000001002400000424280044242007000402D
:10153000414B1A6A42F004021A621A6A42F001022E
:101540001A62CEE7FFF7B4FC06463B4B1B6A13F06A
:10155000020F08D0FFF7ACFC801B41F288339842A1
:10156000F3D9032063E0E5B9E369002B5ED0324A8A
:10157000526802F00C02082A5BD0022B17D02F4BC6
:1015800000221A60FFF794FC04462B4B1B6813F0F3
:10159000007F47D0FFF78CFC001B0228F5D9032001
:1015A00045E0254AD36923F08053D361DCE7234B20
:1015B00000221A60FFF77CFC05461F4B1B6813F0E6
:1015C000007F06D0FFF774FC401B0228F5D90320EA
:1015D0002DE0236AB3F5803F1AD017494B6823F4F6
:1015E0007413226A606A024313434B60134B012257
:1015F0001A60FFF75DFC04460F4B1B6813F0007F79
:101600000ED1FFF755FC001B0228F5D903200EE090
:10161000094A536823F40033A1680B435360DCE7A5
:10162000002004E0002002E0012000E0002002B0E1
:1016300070BD0120FBE700BF001002406000424285
:1016400010B487B0164C94E80F000DF1180C0CE99B
:101650000F00238AADF80430124B5B6803F00C02D4
:10166000082A1AD1C3F38342624412F8102C13F4EF
:10167000803F05D10C4800FB02F007B010BC70475A
:10168000084B5B68C3F34043634413F8143C0748BA
:1016900000FB02F0B0FBF3F0EFE70448EDE700BF1A
:1016A000605F00080010024000093D0000127A004F
:1016B000624B1B6803F007038B420CD25F4A13682E
:1016C00023F007030B431360136803F007038B42F7
:1016D00001D00120704770B5036813F0020F17D0D6
:1016E00013F0040F04D0564A536843F4E063536088
:1016F000036813F0080F04D0514A536843F4605351
:1017000053604F4A536823F0F003846823435360C7
:101710000D460446036813F0010F52D04368012BB5
:1017200023D0022B28D0464A126812F0020F00F094
:10173000828043494A6822F0030213434B60FFF75B
:10174000B7FB06466368012B1DD0022B2AD03C4B09
:101750005B6813F00C0F34D0FFF7AAFB801B41F23B
:1017600088339842F3D9032064E0354A126812F4B2
:10177000003FDED101205DE0314A126812F0007FA7
:10178000D7D1012056E02E4B5B6803F00C03042BED
:1017900017D0FFF78DFB801B41F288339842F2D9B6
:1017A000032047E0264B5B6803F00C03082B08D0AE
:1017B000FFF77EFB801B41F288339842F2D9032069
:1017C00038E01E4B1B6803F00703AB420CD91B4AE1
:1017D000136823F007032B431360136803F0070318
:1017E000AB4201D0012025E0236813F0040F06D09E
:1017F000134A536823F4E063E1680B4353602368A2
:1018000013F0080F07D00E4A536823F46053216980
:1018100043EAC1035360FFF713FF094B5B68C3F34F
:101820000313084AD35CD840074B18600020FFF729
:10183000FDFA002070BD0120FCE700BF002002403F
:1018400000100240745F000818000020014B186867
:10185000704700BF1800002008B5FFF7F7FF044BE2
:101860005B68C3F30223034AD35CD84008BD00BFC2
:1018700000100240845F000808B5FFF7E7FF044B43
:101880005B68C3F3C223034AD35CD84008BD00BFE2
:1018900000100240845F000870B4036A23F0010363
:1018A0000362036A4268846924F073040D6845EAA0
:1018B000040623F002048B6823430D4DA84209D08F
:1018C0000B4DA8420DD0426086614A6842630362B4
:1018D00070BC704723F00803CC68234323F0040353
:1018E000EEE722F440724C6914438A692243EAE726
:1018F000002C014030B4036A23F480730362036A4E
:101900004268C46924F073040D682C4323F4007307
:101910008D6843EA05230F4DA84209D00D4DA8421A
:101920000ED04260C4614A68C263036230BC704733
:1019300023F40063CD6843EA052323F48063EDE7D5
:1019400022F440524D6942EA05128D6942EA0512BD
:10195000E7E700BF002C014030B4036A23F4805352
:101960000362036A4468C26922F4E6420D6842EAEF
:10197000052223F400538D6843EA0533074DA8423E
:1019800006D04460C2614A680264036230BC70479A
:1019900024F480444D6944EA8514F2E7002C0140A8
:1019A00010B4036A046A24F001040462846924F018
:1019B000F00444EA021223F00A030B43826103623B
:1019C00010BC704730B4046A24F0100404628469C7
:1019D000056A24F4407444EA022222F470421B0394
:1019E0009BB21A4325F0A005090101F0A00129438B
:1019F0008261016230BC704710B4036A23F01003A7
:101A000003628469036A24F4704444EA023223F0D6
:101A1000A00343EA01138261036210BC704730B433
:101A2000046A24F480740462C469056A24F003041F
:101A3000224322F0F0021B01DBB21A4325F40075A9
:101A4000090201F400712943C261016230BC704790
:101A500030B4046A24F480540462C469056A24F42E
:101A6000407444EA022222F470421B039BB21A43E0
:101A700025F40055090301F400512943C2610162B4
:101A800030BC7047836823F0700341F007011943AD
:101A90008160704710B4846824F47F4442EA0323D1
:101AA0000B432343836010BC704710B50468A268E1
:101AB00022F070024B68134323F007030A681343B4
:101AC000A3604B68502B1ED00AD9602B21D0702BFD
:101AD00005D10B698A68C9680068FFF7DBFF10BD94
:101AE000402BFCD103681C6A1A6A22F001021A62B8
:101AF0000268936923F0F003096943EA01139361D3
:101B000003681C62EBE70A6989680068FFF748FF11
:101B1000E5E70A6989680068FFF76EFFDFE702689A
:101B2000D36843F00103D3600268136843F00103F4
:101B30001360002070470268D36823F00103D3606C
:101B40000368196A41F21112114208D1196A40F270
:101B50004442114203D11A6822F001021A600020A7
:101B600070477047704790F83C30012B7DD010B51E
:101B70000446012380F83C30022380F83D3002689F
:101B8000936823F47F4323F0770393600B68402B23
:101B900057D010D9702B3ED01FD8502B47D0602B78
:101BA00032D1CA6849680068FFF726FF60212068C3
:101BB000FFF768FF28E0102B4DD008D9202B4FD01D
:101BC000302B21D130210068FFF75CFF1CE0DBB92E
:101BD00000210068FFF756FF16E0B3F5805F0ED0D6
:101BE000B3F5005F10D1CB684A6889680068FFF7D9
:101BF00051FF2268936843F48043936004E00268D5
:101C0000936823F007039360012384F83D3000209C
:101C100084F83C0010BDCB684A6889680068FFF70B
:101C200039FF2268936843F077039360ECE7CA6852
:101C300049680068FFF7B4FE50212068FFF722FFD3
:101C4000E2E7CA6849680068FFF7AAFE40212068F9
:101C5000FFF718FFD8E710210068FFF713FFD3E75D
:101C600020210068FFF70EFFCEE70220704738B54D
:101C700090F83C30012B18D00446012580F83C50E8
:101C8000022380F83D30FFF710FF2268D36823F06D
:101C90004003D3602268D36823F48043D36084F880
:101CA0003D50002084F83C0038BD0220FCE703468C
:101CB00090F83C20012A1ED0012280F83C200C29FB
:101CC00017D8DFE801F0071616160D1616161016AF
:101CD000161613000268506B002283F83C207047F0
:101CE0000268906BF8E70268D06BF5E70268106C49
:101CF000F2E70020F0E70220704770477047704716
:101D000010B5044603681A6912F0020F11D0DA68A0
:101D100012F0020F0DD06FF002021A610123037757
:101D200003689B6913F0030F70D001F0C7FB002319
:101D3000237723681A6912F0040F12D0DA6812F0C0
:101D4000040F0ED06FF004021A6102232377236878
:101D50009B6913F4407F5FD0204601F0AFFB002366
:101D6000237723681A6912F0080F12D0DA6812F08C
:101D7000080F0ED06FF008021A610423237723683E
:101D8000DB6913F0030F4ED0204601F097FB0023D0
:101D9000237723681A6912F0100F12D0DA6812F054
:101DA000100F0ED06FF010021A61082323772368FA
:101DB000DB6913F4407F3DD0204601F07FFB002318
:101DC000237723681A6912F0010F03D0DA6812F042
:101DD000010F36D123681A6912F0800F03D0DA6838
:101DE00012F0800F34D123681A6912F0400F03D02B
:101DF000DA6812F0400F32D123681A6912F0200F0E
:101E000003D0DA6812F0200F30D110BDFFF775FF54
:101E10002046FFF773FF8AE72046FFF76EFF204654
:101E2000FFF76CFF9BE72046FFF767FF2046FFF7B1
:101E300065FFACE72046FFF760FF2046FFF75EFF37
:101E4000BDE76FF001021A61204601F0E5FAC1E733
:101E50006FF080021A61204600F08FFAC3E76FF03E
:101E600040021A612046FFF74AFFC5E76FF02002E3
:101E70001A61204600F080FAC7E7000003681B4A99
:101E800090420AD0B0F1804F07D0A2F59432904230
:101E900003D002F58062904203D123F070034A68B8
:101EA0001343124A90420AD0B0F1804F07D0A2F5F6
:101EB0009432904203D002F58062904203D123F421
:101EC0004073CA68134323F080034A6913430360D5
:101ED0008B68C3620B688362044B984202D0012373
:101EE000436170470B690363F9E700BF002C0140B1
:101EF000A8B110B5044690F83D305BB1022384F8D8
:101F00003D30211D2068FFF7B9FF012384F83D30E3
:101F1000002010BD80F83C3001F066FCEEE70120A7
:101F20007047A8B110B5044690F83D305BB102236C
:101F300084F83D30211D2068FFF7A0FF012384F8BD
:101F40003D30002010BD80F83C30FFF70AFEEEE780
:101F500001207047A8B110B5044690F83D305BB140
:101F6000022384F83D30211D2068FFF787FF0123FD
:101F700084F83D30002010BD80F83C30FFF7F2FDC2
:101F8000EEE701207047000030B4036A23F010032D
:101F90000362036A4468826922F4E6420D6842EAF9
:101FA000052223F020038D6843EA05130E4DA84255
:101FB00009D00D4DA8420ED0446082614A68826308
:101FC000036230BC704723F08003CD6843EA0513F9
:101FD00023F04003EDE724F440644D6944EA8504AE
:101FE0008D6944EA8504E7E7002C014038B590F894
:101FF0003C30012B66D00D460446012380F83C306E
:10200000022380F83D300C2A1AD8DFE802F00719C5
:102010001919201919193419191947000068FFF7FF
:102020003BFC2268936943F008039361226893693B
:1020300023F0040393612268936929690B43936138
:10204000012384F83D30002084F83C0038BD00684E
:10205000FFF79AFF2268936943F400639361226853
:10206000936923F48063936122689369296943EA41
:1020700001239361E4E70068FFF73CFC2268D36921
:1020800043F00803D3612268D36923F00403D361CA
:102090002268D36929690B43D361D1E70068FFF750
:1020A0005BFC2268D36943F40063D3612268D3697F
:1020B00023F48063D3612268D369296943EA012349
:1020C000D361BDE70220C1E770B4046A24F00104C3
:1020D00004628469056A114EB0420DD0B0F1804FA0
:1020E0000AD0A6F59436B04206D006F58066B04216
:1020F00002D044F0010202E024F00304224322F063
:10210000F0021B01DBB2134325F00A0201F00A01C1
:1021100011438361016270BC704700BF002C014015
:1021200038B590F83C30012B58D00D4604460123B9
:1021300080F83C30022380F83D30DAB1042A2AD0FE
:10214000082A3AD0CB684A6809680068FFF780FC23
:102150002268D36923F44063D3612268D369A968F4
:1021600043EA0123D361012384F83D30002084F841
:102170003C0038BDCB684A6809680068FFF7A4FFD7
:102180002268936923F00C03936122689369A9681C
:102190000B439361E7E7CB684A6809680068FFF77B
:1021A00011FC2268936923F4406393612268936968
:1021B000A96843EA01239361D5E7CB684A680968B7
:1021C0000068FFF72CFC2268D36923F00C03D3616D
:1021D0002268D369A9680B43D361C4E70220C8E72A
:1021E00010B4012303FA01F4036A23EA040303622F
:1021F000036A8A401343036210BC704710B504465B
:102200000C290DD8DFE801F0070C0C0C1B0C0C0C92
:10221000210C0C0C27000268D36843F00203D36042
:1022200001222068FFF7DCFF2368104A934218D090
:102230002268136843F001031360002010BD026898
:10224000D36843F00403D360EAE70268D36843F03D
:102250000803D360E4E70268D36843F01003D36057
:10226000DEE75A6C42F400425A64E1E7002C014078
:1022700010B504460C290DD8DFE801F0070C0C0C52
:10228000170C0C0C1D0C0C0C23000268D36843F0D7
:102290000203D36001222068FFF7A2FF22681368BF
:1022A00043F001031360002010BD0268D36843F0BF
:1022B0000403D360EEE70268D36843F00803D360F9
:1022C000E8E70268D36843F01003D360E2E790F8D0
:1022D0003C30012B25D0012380F83C30CB6823F41F
:1022E00040738A68134323F480634A68134323F4DA
:1022F00000630A68134323F480530A69134323F4E9
:1023000000534A69134323F480438A69134323F437
:102310000043134302685364002380F83C3018469E
:1023200070470220704790F83C30012B22D030B427
:10233000012280F83C20022380F83D300468636865
:1023400023F070036360046863680D682B43636067
:102350000468A36823F08003A3600468A368496845
:102360000B43A36080F83D20002380F83C301846E2
:1023700030BC704702207047704770470268D368CE
:1023800023F49073D3600268536923F0010353610F
:10239000202380F83A30704790F83930DBB2212B97
:1023A0002AD18368B3F5805F16D0036A5A1C026293
:1023B0001A7803685A60C38C013B9BB2C384EBB9A3
:1023C0000268D36823F08003D3600268D36843F0C7
:1023D0004003D36000207047036A1B880268C3F380
:1023E0000803536003691BB9036A02330362E2E71F
:1023F000036A01330362DEE7022070470020704762
:102400002DE9F84305460268136923F44053C16877
:102410000B431361836802691343426913430168E4
:10242000CA6822F4B05222F00C021343CB60026857
:10243000536923F4407381690B4353610268594B1C
:102440009A4257D0FFF708FA00EB800000EB8000BB
:102450006C68A400B0FBF4F4534FA7FB0434640988
:102460002601FFF7F9F900EB800000EB80006C68B3
:10247000A400B0FBF4F9FFF7EFF900EB800000EBEC
:1024800080006C68A400B0FBF4F4A7FB043464097A
:102490004FF0640808FB149424013234A7FB043481
:1024A000640904F0F0043444FFF7D6F900EB80002F
:1024B00000EB80006E68B600B0FBF6F6FFF7CCF9D3
:1024C00000EB800000EB80006B689B00B0FBF3F03A
:1024D000A7FB0030400908FB10684FEA081808F114
:1024E0003208A7FB0837C7F343172B6827449F60C0
:1024F000BDE8F883FFF7C0F900EB800000EB800037
:102500006C68A400B0FBF4F4274FA7FB0434640903
:102510002601FFF7B1F900EB800000EB80006C684A
:10252000A400B0FBF4F9FFF7A7F900EB800000EB83
:1025300080006C68A400B0FBF4F4A7FB04346409C9
:102540004FF0640808FB149424013234A7FB0434D0
:10255000640904F0F0043444FFF78EF900EB8000C6
:1025600000EB80006E68B600B0FBF6F6FFF784F96A
:1025700000EB800000EB80006B689B00B0FBF3F089
:10258000A7FB0030400908FB10684FEA081808F163
:102590003208A7FB0837C7F343172B6827449F600F
:1025A000A6E700BF003801401F85EB5158B310B5B6
:1025B000044690F839300BB3242384F8393022686C
:1025C000D36823F40053D3602046FFF719FF226835
:1025D000136923F4904313612268536923F02A039B
:1025E00053612268D36843F40053D3600020E06352
:1025F000202384F8393084F83A3010BD80F8383020
:1026000001F0B0F9D8E70120704790F83930DBB21B
:10261000202B16D1B9B1C2B190F83830012B16D0A9
:1026200001628284C2840023C363212280F839209E
:1026300080F838300168CA6842F08002CA601846E3
:102640007047022070470120704701207047022028
:10265000704790F83A30DBB2202B20D109B312B387
:1026600090F83830012B20D081628285C28500230A
:10267000C363222280F83A2080F838300168CA68A3
:1026800042F48072CA6001684A6942F001024A61FC
:102690000168CA6842F02002CA60184670470220EA
:1026A000704701207047012070470220704708B52D
:1026B0000168CB6823F04003CB60202380F83930D9
:1026C00000F000FA002008BD08B590F83A30DBB2FF
:1026D000222B45D18368B3F5805F0ED0036903BB1D
:1026E00003685A68836A591C81621A70C38D013B62
:1026F0009BB2C385F3B1002033E0826A036943B91A
:1027000003685B68C3F308031380836A0233836240
:10271000ECE703685B68DBB21380836A0133836292
:10272000E4E703685B68826A511C816203F07F03FF
:102730001370DBE70268D36823F02003D3600268DC
:10274000D36823F48073D3600268536923F00103D4
:102750005361202380F83A3000F0E0F9002000E0D7
:10276000022008BD7047000010B5044602681368D7
:10277000D168526913F00F0005D113F0200F02D079
:1027800011F0200F53D1002867D012F0010202D1BE
:1027900011F4907F61D013F0010F06D011F4807F07
:1027A00003D0E06B40F00100E06313F0040F04D0AD
:1027B0001AB1E06B40F00200E06313F0020F04D0A6
:1027C0001AB1E06B40F00400E06313F0080F04D08E
:1027D0001AB1E26B42F00802E263E26B002A48D0D1
:1027E00013F0200F02D011F0200F24D123685B6971
:1027F00003F04003E26B12F0080F00D13BB3204618
:10280000FFF7BCFD23685A6912F0400F1BD05A69CC
:1028100022F040025A61636B8BB11A4A5A63606BB3
:10282000FEF7B8FB28B3606B436B984721E0204666
:10283000FFF74AFF1DE02046FFF746FFD6E7204698
:10284000FFF790FF15E02046FFF78CFF11E02046D0
:10285000FFF788FF0023E3630BE013F0800F02D043
:1028600011F0800F06D113F0400F02D011F0400F8D
:1028700004D110BD2046FFF78FFDFAE72046FFF791
:1028800016FFF6E78928000808B5406A0023C385CB
:10289000C384FFF767FF08BD70B50546124E0122DD
:1028A00004213046FEF7B3FC104C05F00102102164
:1028B0002046FEF7ACFC05F0020220212046FEF780
:1028C000A6FC05F0040240212046FEF7A0FC05F01E
:1028D000080280212046FEF79AFC0022042130469F
:1028E000FEF795FC70BD00BF000C014000100140D8
:1028F00000B585B0F02300930023019302930223D7
:10290000039369460248FEF791FB05B05DF804FBAE
:102910000010014000B585B0F0230093012301931E
:10292000002302930223039369460348FEF77EFBCC
:1029300005B05DF804FB00BF0010014070B5144DF8
:10294000012204212846FEF762FC124E1021304677
:10295000FEF756FC44B220213046FEF751FC44EA13
:10296000400464B240213046FEF74AFC44EA800449
:1029700064B280213046FEF743FC44EAC004E4B26E
:10298000002204212846FEF742FC204670BD00BF0D
:10299000000C01400010014010B5FFF7A9FF012213
:1029A00002210648FEF733FCFFF7C8FF0001C4B25E
:1029B000FFF7C4FF2043C0B210BD00BF000C0140B0
:1029C00008B5002201210348FEF721FCFFF7E4FFD0
:1029D00008BD00BF000C014010B50446FFF79AFF88
:1029E0002009FFF759FF2046FFF756FFFFF7E8FFE2
:1029F00010F0800FFAD110BD38B50546074C002203
:102A000001212046FEF703FC002202212046FEF7AA
:102A1000FEFB2846FFF7E0FF38BD00BF000C014079
:102A200008B52820FFF7E8FF0C20FFF7E5FF01209D
:102A3000FFF7E2FF0420FFF7DFFF08BD08B511B183
:102A4000012905D008BD40F08000FFF7D5FFF9E768
:102A5000403040B260F07F00C0B2FFF7CDFFF1E739
:102A600038B50546074C012211462046FEF7CFFB3C
:102A7000002202212046FEF7CAFB2846FFF7ACFFE2
:102A800038BD00BF000C01400CB430B5C3B00446E3
:102A90000D4646AA52F8041B019202A802F096F9CC
:102AA00029462046FFF7CAFF002402E0FFF7D8FFBF
:102AB000013402AB185D0028F8D143B0BDE83040C6
:102AC00002B07047134B834200D07047124B1A7804
:102AD000D2B25B78DBB29A42F7D000B583B00E4B2E
:102AE0005A781A4412798DF807205A780132D2B2F6
:102AF0005A705B78DBB2812B02D9074B00225A70E7
:102B000001220DF107010348FFF77FFD03B05DF8D7
:102B100004FB00BFC80400200C02002008B50F4BC6
:102B2000834200D008BD0E4A92F886300133DBB2F2
:102B300082F8863092F88630DBB2812B03D91346B7
:102B4000002283F88620064B93F88630012205493F
:102B500019440248FFF77DFDE4E700BFC8040020E8
:102B60000C02002034030020134B93F88620D2B2CD
:102B700093F88730DBB29A421CD082B00E4A92F8AA
:102B80008730DBB20D49CB5C8DF8073092F8873087
:102B90000133DBB282F8873092F88730DBB2812BC9
:102BA00003D91346002283F887209DF80700C0B29E
:102BB00002B07047FF2070470C0200203403002051
:102BC0000FB410B5A4B026AA52F8041B294B1B78E9
:102BD000DBB20293019203A802F0F8F8002400E0AF
:102BE000013403A8FEF71AF9A04210D9029924ABC8
:102BF000234413F8842C1F4B0B441A71029B01339E
:102C00000293029B812BEBDD00230293E8E772B66F
:102C1000184B1A78D2B25B78DBB29A4209D0029B89
:102C2000DBB2144A137062B624B0BDE8104004B0A1
:102C30007047114B1B681B6813F0800FEFD0029A8E
:102C4000D2B20C4B1A705A781A4412798DF80320BC
:102C50005A780132D2B25A705B78DBB2812B02D93A
:102C6000044B00225A7001220DF103010248FFF7C4
:102C7000CCFCD8E70C020020C804002038B504467C
:102C80000D46FEF7CBF8812800DC255438BD000046
:102C90000FB470B5C4B048AC54F8046B82252A4612
:102CA000002123A802F048F822942246314623A8A6
:102CB00002F08CF823A8FEF7B1F804462A4600215A
:102CC00001A802F039F8A02101A8FFF7D7FF7D2C59
:102CD00026D8002425460AE005F2B715DB2101A815
:102CE000FFF7CCFFDC2101A8FFF7C8FF013444AB9C
:102CF000234413F8841CC9B1A029EDD0DB2904D0EA
:102D00000D4401A8FFF7BAFFF0E705F5DC75DB21FC
:102D100001A8FFF7B3FFDD2101A8FFF7AFFFE5E74B
:102D20001048FFF7B5FF4FF0FF3016E0FE2101A875
:102D3000FFF7A4FFFF2101A8FFF7A0FF05F2FD1197
:102D4000C9B201A8FFF79AFFA02101A8FFF796FFDB
:102D500001A90548FFF734FF002044B0BDE87040EA
:102D600004B07047985F0008B05F000810B4114BC2
:102D7000D3F88840013C234493F88C000023194683
:102D800002E001F2B71101339C420CDD094A1A44FA
:102D900092F88C20A02AF4D0DB2A01D01144F2E76B
:102DA00001F5DC71EFE7C9B2884214BF00200120B1
:102DB00010BC70470C020020002305E0074A1A44AB
:102DC000002182F88C100133044AD2F888209A42FC
:102DD000F4DC024B0022C3F8882070470C0200206C
:102DE000074BD3F888104B1E05E0054A1A44002013
:102DF00082F88C00013B0A1F9A42F6DB704700BF45
:102E00000C02002038B5124BD3F88840002C1ADD94
:102E1000FFF7ACFF98B1E31E0D4D2B4493F88C30B7
:102E200085F80E31023C2C4494F88C3085F80F3133
:102E3000FFF7D6FF05F18C0000F050FA38BD0548C9
:102E4000FFF726FFFAE70448FFF722FFF6E700BF87
:102E50000C020020B45F0008CC5F00083C4B93F8E4
:102E60008620D2B293F88730DBB29A426ED010B58A
:102E7000FFF77AFE0446374B1B6800225A62364B36
:102E80001B78012B0ED013B1022B33D010BDA0281C
:102E9000FCD1FFF791FF304B01221A702D48FEF74D
:102EA0003EFEF3E7DB280DD0A0280FD0284BD3F847
:102EB00088207F2A12DC511CC3F88810134483F841
:102EC0008C00E3E7244B02221A70DFE7FFF79AFF3A
:102ED000FFF772FF204B01221A70D7E71F48FFF758
:102EE000D7FEFFF769FF1C4B00221A701948FEF746
:102EF00022FECBE7DC280AD0DD2819D0FFF75CFFE3
:102F0000154B00221A701348FEF715FE00E0A024AE
:102F10000F4BD3F888307F2B0CDC0D4A591CC2F8BC
:102F20008810134483F88C400B4B01221A70ADE7D4
:102F3000DB24EDE70948FFF7ABFEFFF73DFF064B4B
:102F400000221A700348FEF7F6FD9FE7704700BFA6
:102F50000C020020C80300201D030020985F000819
:102F60002DE9F04389B00024049405940694079455
:102F7000354B9A6942F010029A619A6902F0100288
:102F80000092009A9A6942F020029A619A6902F0CE
:102F900020020192019A9A6942F004029A619A69A8
:102FA00002F004020292029A9A6942F008029A61BF
:102FB0009B6903F008030393039BDFF89890224674
:102FC00021214846FEF723F9204F2246F0213846BA
:102FD000FEF71DF9DFF88080224607214046FEF704
:102FE00016F94FF400530493194B0593069404A962
:102FF0003846FEF71BF82123049301260596069414
:103000000225079504A94846FEF710F8F02304931B
:1030100005960694079504A93846FEF707F8072396
:10302000049305960694079504A94046FDF7FEFF14
:10303000224621462820FDF753FF2820FDF784FF74
:1030400009B0BDE8F08300BF00100240001001404D
:103050000000111000080140000C014008B50848AC
:10306000084B03604FF41653436000238360C36032
:1030700003610C2242618361C361FFF797FA08BDC7
:10308000C80400200044004030B587B000240294FA
:10309000039404940594009401940E4D0E4B2B6000
:1030A00040236B60AC604FF48263EB602C61AC61D9
:1030B0002846FEF71DFF4FF48053029302A92846CD
:1030C000FEF751FD0094019469462846FFF72BF95D
:1030D00007B030BDC80300200008004030B587B0FD
:1030E00000240294039404940594009401940E4DDA
:1030F0004FF080432B6040236B60AC600923EB6092
:103100002C61AC612846FEF7F3FE4FF48053029326
:1031100002A92846FEF727FD009401946946284637
:10312000FFF701F907B030BD8804002070B590B0FA
:1031300000240C940D940E940F9407940894099411
:103140000A940B94039404940594069401940294B5
:103150001E4D1F4B2B6040236B60AC604FF6FF731E
:10316000EB602C61AC612846FEF7C2FE4FF4805341
:103170000C930CA92846FEF7F6FC2846FEF7EAFE5B
:10318000042607965023089309940A940B9407A9E0
:103190002846FEF76CFD03940123049305940694DE
:1031A000224603A92846FEF7BBFF0223039304939C
:1031B000324603A92846FEF7B3FF019402940DEBB3
:1031C00006012846FFF7AFF810B070BD08040020D4
:1031D0000004004030B595B000241094119412946E
:1031E00013940E940F940794089409940A940B94E2
:1031F0000C940D9400940194029403940494059407
:1032000006941F4D1F4B2B6040236B60AC6040F257
:103210008F13EB602C616C61AC612846FEF768FE91
:103220004FF48053109310A92846FEF79CFC2846C3
:10323000FEF777FE0E940F940EA92846FFF773F859
:1032400060230793089409940A940B940C940D94AA
:10325000224607A92846FEF7C9FE0094019402946D
:10326000039404944FF4005305930694694628464A
:10327000FFF72DF8284600F04DFB15B030BD00BF1C
:1032800048040020002C0140034A1168642303FB1A
:1032900001F31360704700BF080000200B4A536819
:1032A00099010B4B93FBF1F3013B53600948016813
:1032B000CB62C360C96A4908936803FB01F30649FE
:1032C000A1FB03135B099360704700BF0800002057
:1032D0000090D003480400201F85EB5110B5044630
:1032E000104A114901F030FD01280DD00D4A02F1BC
:1032F000080304320D49204601F026FD02280AD0B9
:103300000B48FFF7C5FC10BDFFF7BEFF214609487B
:10331000FFF7BEFCF7E7FFF7C1FF21460548FFF7BF
:10332000B7FCF0E708000020E05F0008E85F000855
:10333000F45F0008B05F0008013900238B420ADA0D
:1033400010B4C25C445CC4544254013301398B4212
:10335000F7DB10BC7047704770B50D4600240EE0D7
:103360000F4981FB0031C317C3EBA1031E4603EBDA
:1033700083035900431A30332B553046013400285B
:10338000EED102E030232B5501349442FADB214682
:103390002846FFF7D1FF00232B55204670BD00BF04
:1033A000676666662DE9F84307460C461546FDF745
:1033B0000FFD0646FDF742FC01463846FDF788FB47
:1033C0000746002221463046FFF7C6FF0DB9BDE88B
:1033D000F88306462E2323542846FDF70BF80246B1
:1033E0000B4600200B4900F095FB80468946384685
:1033F000FDF712F842464B46FDF766F8FDF714FB61
:1034000001363444FDF7E4FC2A462146FFF7A4FFC9
:10341000DDE700BF0000244010B504460268214BE0
:103420009A4204D02368B3F1804F15D010BD1E4BD3
:103430001B681B6813F0100FF4D01C4A137801337B
:10344000DBB21370052BEDD9134600221A705A70A7
:103450001748FEF770FBE5E7164BDB68012B17D02A
:10346000144BDB68002BE1D1002201211248FDF74B
:10347000CEFE0E4A5368013353600E4A12689342DF
:10348000D4DB0A4B00225A600A4B0122DA60CDE7F6
:10349000012211460848FDF7BAFE064B0022DA6009
:1034A000C4E700BF00080040C80400201C0300203F
:1034B000C8030020080000200008014010B572B6C3
:1034C000094C2046FEF737FB04210848FEF7EFFBC6
:1034D0000130074B9860236800225A622046FEF7AD
:1034E0001EFB62B610BD00BF880400200804002047
:1034F0001C0300200F4AD3680133D360128A013ABB
:1035000093420FD90B4A128A013A934206D90949CC
:10351000888A0A8A0244013A934207D9054B00225D
:10352000DA607047034B01229A74704700228A7454
:10353000704700BF1C03002030B591B0202200214D
:1035400007A801F0F9FB0024019402940394049469
:1035500005940225069501230A9310230B930D95DC
:103560004FF460130F9306A8FDF77CFE0F23019321
:10357000029503944FF4806304930594294601A8AF
:10358000FEF796F811B030BD10B586B0FDF772FCAD
:10359000FFF7D2FFFFF7E4FCFFF760FDFFF774FDD4
:1035A000FFF7C4FDFFF79AFDFFF714FE6548FEF72D
:1035B000B6FA654C00212046FEF75AFE042120464B
:1035C000FEF756FE00216148FEF718FE0122604911
:1035D0006048FFF73EF86048FFF75AFBFFF720FA14
:1035E0002DE05E492046FDF7DFFB002849D04FF073
:1035F00084412046FDF7CEFB002842D0584B642280
:103600001A829A82012201A92046FFF7CBFE0120EF
:10361000FFF7F2F9534A00210846FFF735FA01ABEC
:10362000514A01210020FFF72FFA4D4B9B7C002BC4
:1036300000F08380454B1B684C4A92685A63FFF741
:103640000DFC4A4BDB68002BEFD000230193029363
:10365000039304930593424B9868FCF7CBFE00223A
:10366000434BFDF75BF8FDF7DFF904464149FDF7F1
:1036700087FB0028B5D03A4B02221A8200229A8298
:10368000C0E73D492046FDF78FFB48B13B49204646
:10369000FDF780FB20B1324BC8221A829A82B1E733
:1036A00037492046FDF780FB50B136492046FDF7EB
:1036B00071FB28B12A4B4FF496721A829A82A1E7C5
:1036C00031492046FDF770FB50B130492046FDF7E7
:1036D00061FB28B1224B4FF4C8721A829A8291E79B
:1036E0002B492046FDF760FB50B12A492046FDF7E3
:1036F00051FB28B11A4B4FF4FA721A829A8281E771
:1037000025492046FDF750FB50B124492046FDF7DE
:1037100041FB28B1124B4FF416721A829A8271E75C
:103720001F492046FDF74AFB00283FF46BAF0C4BC6
:103730004FF42F721A829A8264E7044B1B680022AE
:103740005A637CE788040020080400204804002015
:1037500034030020C804002010600008000050411D
:103760001C030020306000083C60000808000020B6
:1037700000004D400000204100000C42000050427B
:1037800000005C4200009042000096420000B842F7
:103790000000BE420000E0420000E6420000044398
:1037A0000000074382B00E4B9A6942F001029A6111
:1037B0009A6902F001020092009ADA6942F080529E
:1037C000DA61DB6903F080530193019B054A53687A
:1037D00023F0E06343F00073536002B0704700BF12
:1037E000001002400000014000B58BB0002306939A
:1037F0000793089309930368414A93420BD0B3F1AE
:10380000804F33D03F4A934244D03F4A934264D0E2
:103810000BB05DF804FB3D4B9A6942F400629A617B
:103820009B6903F400630193019B00221146182059
:10383000FDF756FB1820FDF787FB002211461920E3
:10384000FDF74EFB1920FDF77FFB002211461A20E1
:10385000FDF746FB1A20FDF777FB002211461B20DF
:10386000FDF73EFB1B20FDF76FFBD1E703F50433AB
:10387000DA6942F00102DA61DB6903F001030293C5
:10388000029B002211461C20FDF72AFB1C20FDF79D
:103890005BFBBDE71D4BDA6942F00202DA61DA69CF
:1038A00002F002020392039A9A6942F004029A61BA
:1038B0009B6903F004030493049B0AA9402341F885
:1038C000103D1348FDF7B2FB002211461D20FDF705
:1038D00007FB1D20FDF738FB9AE70C4BDA6942F035
:1038E0000402DA61DB6903F004030593059B0022FF
:1038F00011461E20FDF7F4FA1E20FDF725FB87E791
:10390000002C01400004004000080040001002406C
:103910000008014000B587B000230293039304938D
:10392000059302680D4B9A4202D007B05DF804FB84
:1039300003F564439A6942F004029A619B6903F0BB
:1039400004030193019B4FF48073029302230393BA
:10395000059302A90248FDF769FBE6E7002C014048
:103960000008014000B587B000230293039304933D
:1039700005930268154B9A4202D007B05DF804FB2C
:1039800003F5E633DA6942F40032DA61DA6902F407
:1039900000320092009A9A6942F004029A619B698F
:1039A00003F004030193019B0C230293022303936E
:1039B000059302A90648FDF739FB0022114626208F
:1039C000FDF78EFA2620FDF7BFFAD6E70044004047
:1039D000000801407047FEE7FEE7FEE7FEE770479C
:1039E0007047704708B5FDF757FAFDF7CFFA08BDE5
:1039F00008B50248FEF784F908BD00BF480400205E
:103A000008B50248FEF77CF908BD00BF4804002055
:103A100008B50248FEF774F908BD00BF480400204D
:103A200008B50248FEF76CF908BD00BF4804002045
:103A300008B50248FEF764F908BD00BF88040020FD
:103A400008B50248FEF75CF908BD00BF0804002075
:103A500008B50248FEF754F908BD00BFC8030020AE
:103A600008B50248FEF780FE08BD00BFC80400206C
:103A700008B54FF40050FDF7D1FB08BD0F4B1A6895
:103A800042F001021A6059680D4A0A405A601A68E9
:103A900022F0847222F480321A601A6822F48022A2
:103AA0001A605A6822F4FE025A604FF41F029A60AC
:103AB000044B4FF000629A60704700BF0010024054
:103AC0000000FFF800ED00E0002103E00B4B5B5825
:103AD000435004310A480B4B42189A42F6D30A4A23
:103AE00002E0002342F8043B084B9A42F9D3FFF767
:103AF000C5FF01F0FDF8FFF747FD70471C620008A5
:103B000000000020F0010020F00100200C05002042
:103B1000FEE700002DE9F04F8DB006460F46144633
:103B20001D4600F091F9DFF81493CDE9000199F9F1
:103B30000080B8F1FF3F36D022462B46204629466A
:103B4000FCF75CFF834670BB32463B463046394645
:103B5000FCF754FF8246002840F0AD8030463946DD
:103B600000220023FCF718FF10B300220023204698
:103B70002946FCF711FF8346002869D00122002066
:103B80000021A94BCDF828A0CDE90467CDE9064571
:103B9000CDE90801CDE90223B8F1000F42D000239E
:103BA000A24CCDE90034DDE900010DB0BDE8F08F95
:103BB000DDE9000100F080FF8046002800F09880D9
:103BC000DDE900014FF0000A4FF0000B52465B4662
:103BD000FCF7E2FE0028E6D03046394600F06CFFE4
:103BE0000028E0D02046294600F066FF0028DAD001
:103BF0000420002199F900308B4A022BCDE904679B
:103C0000CDE90645CDE908AB02900A91039204D0B4
:103C100002A800F057FF002842D101F063F82223E8
:103C200003603DE002A800F04DFF002800F0B380E3
:103C30000A9B002B3AD001F055F8DDE90834CDE9B4
:103C400000340A9B0360DDE900010DB0BDE8F08F90
:103C50002046294600F030FF0028A4D0002200238F
:103C600020462946FCF7A2FE00289CD001216E4A7E
:103C700099F90030CDF828B0CDE90467CDE90645C3
:103C8000CDE90212002B00F08B8000206849022B46
:103C9000CDE9080140F0888001F024F82123036079
:103CA0000A9B1BB101F01EF80A9B0360DDE9083492
:103CB000CDE9003477E70022002320462946FCF7AF
:103CC0006BFE00283FF46FAF01200022574B56498E
:103CD000B8F1020FCDF828B0CDE90467CDE906456B
:103CE0000290CDE9082303919CD1CDE900235AE746
:103CF0003046394600F0E0FE00283FF461AF204630
:103D0000294600F0D9FE00283FF45AAFDDE9002330
:103D100010461946FCF772FE99F900A0002868D1F8
:103D20000323DFF804C10A902946204602930022AB
:103D3000404BCDE90645CDE90467CDF80CC0FCF752
:103D4000C3FB04460D46BAF1000F34D14FF0604A70
:103D5000DFF8ECB00022002330463946CDE908AB4D
:103D6000FCF724FE00283FF453AF2046294600F01C
:103D7000B1FE22462B46FCF70FFE002836D14FF04D
:103D800060422D4B99F900A0CDE90823BAF1020F4A
:103D90003FF443AF3CE700F0A5FF2123036047E772
:103DA00000230024CDE9083402A800F08BFE00288F
:103DB0007FF476AF70E74FF0000BDFF888C0002289
:103DC000002330463946CDE908BCFCF7EFFD00285A
:103DD000DCD02046294600F07DFE22462B46FCF72B
:103DE000DBFD18B90022124BCDE9082399F900A098
:103DF000CCE701220C4BCDF82880CDE90467CDE952
:103E00000645CDE90223BAF1000FC9D000220023F4
:103E100010461946FCF782FCBAF1020FCDE9080101
:103E20003FF43AAFC0E700BF446000080000F03F35
:103E30000000F0FF0000E03FFFFFEFC71C00002084
:103E4000FFFFEF470000F07F2DE9F04F23F0004522
:103E500055EA020493B00DD0794E21F00044B442EB
:103E60000F4682460FDD04F1404404F5801454EA05
:103E70000A035BD10023734CCDE90034DDE9000176
:103E800013B0BDE8F08F984694464ED0B542EADCB8
:103E90006B4EB54266D0002F8B468146CDE902239A
:103EA00064DB0026BCF1000F0ED1654B9D4246D06D
:103EB000644B9D4200F09780B8F1804F00F0B280D3
:103EC000614B984500F0D2834846594600F0F0FD1A
:103ED000CDE90001BAF1000F06D1002C60D0594B9A
:103EE00027F040429A425BD0FF0F013F56EA07039A
:103EF00000F08280554B9D4240F3B08003F1047383
:103F00009D4240F34E84524B9C4240F38280B8F174
:103F1000000F40F3828048A3D3E9002310461946DE
:103F2000FCF7D2FACDE90001A8E728B1494813B05F
:103F3000BDE8F04F00F0C8BDA542F7DCA8E704F1EA
:103F4000404303F5801353EA0A0393D0404B9C424D
:103F500040F39683B8F1000F5FDBDDE90234CDE971
:103F600000348BE7BCF1000F95D07CE73A4B9D42C3
:103F700037DCA3F154739D4293DD2B15A3F2FF337D
:103F8000142B40F3ED83C3F134032CFA03F202FA4D
:103F900003F3634585D102F00102C2F1020681E715
:103FA000B8F1000F07DADDE9002300202549FCF70E
:103FB000B5FBCDE90001002FBFF660AF04F140442E
:103FC00004F5801454EA060300F04984012E7FF4BE
:103FD00055AFDDE90045224605F10043CDE9002358
:103FE0004CE702265EE7B8F1000FC0F25583484661
:103FF0005946CDE9000141E74A4648465B465946E5
:10400000FCF7AAF802460B46FCF788FBCDE9000155
:1040100034E7B8F1000FFFF67EAF00230024CDE9AE
:1040200000342BE74A4648465B465946FCF74CFAB3
:10403000CDE9000122E700BF9C7500883CE4377E93
:104040000000F07F0000F03F0000E03F0000E04192
:10405000FFFFEF3F0C600008FFFF3F43B4F5801FF8
:1040600080F29C83DDE900010022D14BFCF72CFAA1
:104070006FF0340C0C46CDE900012315CD4AC4F392
:104080001304A3F2FF3344F07F5503EB0C01944279
:104090000D9145F4401540F37383C74B9C4240F3A8
:1040A0000084002300240022CDE90A34CDE9103435
:1040B0000024C24B0131CDE906230D91A5F58015F1
:1040C000DDE906ABDDE9000152465B462946804644
:1040D000FCF742F85246CDE908015B4640462946C6
:1040E000CDE906ABFCF73AF802460B460020B3498F
:1040F000FCF714FB0A4601461346CDE90E120246B0
:10410000DDE90801FCF7E0F90A46834694460023FE
:1041100001460020CDE900BC00936B1043F0005332
:1041200003F50023CDE90412DDE900AB1919A94616
:1041300004460D4602460B4650465946FCF7C4F964
:1041400002460B46DDE90801FCF706F8DDE9062327
:10415000CDE9080120462946FBF7FEFF02460B4643
:1041600040464946FBF7F8FF52465B46FCF7ACF980
:1041700002460B46DDE90801FBF7EEFFDDE90E2301
:10418000FCF7A2F9DDE90445CDE9060122462B46FC
:1041900020462946FCF798F973A3D3E90023044687
:1041A0000D46FCF791F972A3D3E90023FBF7D6FF84
:1041B00022462B46FCF788F96FA3D3E90023FBF7CF
:1041C000CDFF22462B46FCF77FF96DA3D3E90023F0
:1041D000FBF7C4FF22462B46FCF776F96AA3D3E926
:1041E0000023FBF7BBFF22462B46FCF76DF968A3C3
:1041F000D3E90023FBF7B2FF2246804689462B46CF
:1042000020462946FCF760F902460B4640464946DF
:10421000FCF75AF904460D46DDE9040152465B46B7
:10422000FBF79CFFDDE90623FCF74EF922462B46FF
:10423000FBF794FF5246804689465B4650465946F6
:10424000FCF742F900225E4BCDE90801FBF786FF3F
:1042500042464B46FBF782FF00980D4604462B462C
:10426000224650465946FCF72FF9002282468B46DB
:10427000534B20462946FBF76FFFDDE90823FBF788
:104280006BFF02460B4640464946FBF765FFDDE9FA
:104290000423FCF719F9224680468946DDE9060128
:1042A0002B46FCF711F902460B4640464946FBF700
:1042B00055FF8046894602460B4650465946FBF755
:1042C0004DFF35A3D3E9002300980D460446FCF7C3
:1042D000FBF85246CDE904015B4620462946FBF730
:1042E0003BFF02460B4640464946FBF735FF2CA3F1
:1042F000D3E90023FCF7E8F82BA3D3E90023804699
:10430000894620462946FCF7DFF802460B46404620
:104310004946FBF723FFDDE91023FBF71FFF80462B
:104320000D988946FCF766F882468B46DDE9040164
:1043300042464B46FBF712FFDDE90A23FBF70EFF6F
:1043400052465B46FBF70AFF009852465B4604461E
:104350000D46FBF701FFDDE90A23FBF7FDFEDDE972
:1043600004232FE0AFF30080EF4E454A287ECA3F7A
:1043700065DBC9934A86CD3F01411DA96074D13FD9
:104380004D268F515555D53FFFAB6FDBB66DDB3FEB
:10439000033333333333E33F000000E009C7EE3F1C
:1043A000FD033ADC09C7EE3FF5015B14E02F3EBE8A
:1043B000000040438E98030079B60B000000F03FE8
:1043C00000000840FBF7C8FE0B460246494640463F
:1043D000FBF7C2FE0022013E56EA070314BFDA4B88
:1043E000DA4B8B46CDE90423DDE9021200230E46A9
:1043F0001746CDE900670093DDE9006782463B463A
:10440000084611463246FBF7A7FE22462B46FCF72C
:104410005BF8DDE902238046894650465946FCF7A1
:1044200053F802460B4640464946FBF797FE804646
:10443000894632463B4620462946CDE90289FCF7AB
:1044400043F80B46024606460F4640464946FBF7F0
:1044500085FEBF4B044699420D468A4640F32681AD
:1044600001F13F4303F5E003034340F0FE81A2A3C3
:10447000D3E90023DDE90201FBF770FE32468046F6
:1044800089463B4620462946FBF766FE02460B4618
:1044900040464946FCF7A8FA002840F0E681A846C5
:1044A0004FF4801300204FEA2852A2F2FE3213414B
:1044B0005344C3F30A52A74DA2F2FF321541C3F38E
:1044C000130423EA0501C2F1140B44F48014BAF179
:1044D000000F02460B4644FA0BFB30463946B8BF84
:1044E000CBF1000BFBF738FE06460F46DDE9020173
:1044F00032463B46FBF732FE0D464FEA0B5A00248C
:104500007FA3D3E9002320462946FBF7DDFF32468F
:10451000804689463B4620462946FBF71DFE02465B
:104520000B46DDE90201FBF717FE77A3D3E9002371
:10453000FBF7CAFF76A3D3E9002306460F462046C1
:104540002946FBF7C1FF02460B4630463946FBF7CA
:1045500005FE06460F4602460B4640464946FBF717
:10456000FDFD42464B4604460D46FBF7F5FD02466F
:104570000B4630463946FBF7EFFD2246804689461A
:104580002B4620462946FBF79FFF63A3D3E9002370
:1045900006460F46FBF798FF61A3D3E90023FBF71C
:1045A000DBFD32463B46FBF78FFF5FA3D3E90023D9
:1045B000FBF7D4FD32463B46FBF786FF5CA3D3E90D
:1045C0000023FBF7C9FD32463B46FBF77DFF5AA3AC
:1045D000D3E90023FBF7C2FD32463B46FBF774FFED
:1045E00002460B4620462946FBF7B6FD06460F4617
:1045F00002460B4620462946FBF766FF0022CDE91E
:1046000000014FF0804330463946FBF7A5FD0246D6
:104610000B46DDE90001FCF781F8424606460F46ED
:104620004B4620462946FBF74FFF42464B46FBF7D9
:1046300095FD02460B4630463946FBF78DFD224676
:104640002B46FBF789FD02460B4600203E49FBF74F
:1046500083FD8A44BAF5801FC0F235815146DDE9F9
:104660000423FBF731FFCDE9000107E4002FFFF63B
:104670002BAC4846594613B0BDE8F04F00F056B990
:10468000B8F1000FBFF6C9ACDDE90234009304F1C4
:1046900000430193FFF7F2BB4A465B4600202A49DC
:1046A000FCF73CF8CDE90001FFF7E8BB2A4B21F00D
:1046B0000048984540F3E980284B0B4403430AD156
:1046C00032463B46FBF748FDDDE90223FCF782F961
:1046D00000283FF4E5AE1AA3D3E90023DDE9040185
:1046E000FBF7F2FE16A3D3E90023FBF7EDFECDE9BD
:1046F0000001FFF7C3BB00BFFE822B654715973C47
:1047000000000000432EE63FEF39FAFE422EE63F5E
:10471000396CA80C615C20BED0A4BE726937663EBD
:10472000F16BD2C541BDBB3E2CDE25AF6A56113FB1
:1047300093BDBE166CC1663F3E5555555555C53F98
:1047400059F3F8C21F6EA5010000F03F0000F0BF52
:10475000FFFF8F40FFFF0F00FFCB904000346F3F03
:10476000BCF1000F40F09A80C3F1140345FA03F244
:1047700002FA03F3AB4200F0AA806646FFF798BB4B
:10478000002300241A462346CDE90A23CDE910234D
:104790000022614B0024CDE9062391E44FF0000C88
:1047A0006BE45E4B9C427FF734AC5B4B9C423FF723
:1047B000AEABDDE900010022574BFBF7CDFC48A36F
:1047C000D3E9002304460D46FBF77EFE46A3D3E95A
:1047D000002382468B4620462946FBF775FE0022C1
:1047E000CDE900014E4B20462946FBF76DFE0246FF
:1047F0000B463FA1D1E90001FBF7AEFC22462B4658
:10480000FBF762FE02460B4600204649FBF7A4FC7C
:104810002246804689462B4620462946FBF754FE11
:1048200002460B4640464946FBF74EFE32A3D3E90B
:104830000023FBF749FE02460B46DDE90001FBF7CA
:104840008BFC02460B468046894650465946FBF78C
:1048500085FC00200D46044652465B46B2E5DDE984
:10486000002310461946FFF7CBBB25A3D3E900234D
:10487000DDE90401FBF728FE21A3D3E90023FBF7C0
:1048800023FECDE90001FFF7F9BA264B98453FF723
:1048900007AEDDE900239246934630E60026FFF797
:1048A00013BB19A3D3E90023CDE90A2318A3D3E945
:1048B0000023CDE9102300221B4B4FF48024CDE9C7
:1048C0000623FFF7FDBB5A4600F092F9C7E602F057
:1048D0000102C2F10206FFF7EBBA00BFAFF300809E
:1048E000000000604715F73F44DF5DF80BAE543E13
:1048F000555555555555D53FFE822B654715F73F04
:104900009C7500883CE4377E0000004003B8E23F1D
:1049100006D0CF43EBFD4C3E0000F03FFEFFEF3FE3
:104920000000D03F0000E03F0000F83F5F4A2DE963
:10493000F0418A430D46074600F0948000290B465B
:104940000446064654DD0F1500F0A780C3F3130399
:10495000A7F2FF3743F48013F20FF80702EB43038B
:104960004FEA460503D5ED0F05EB4303B5000026DE
:104970001622B4464FF400117F100CEB0100984250
:104980004FEAD5744FEA450503DC1B1A00EB010C16
:104990000E44013A04EB43034FEA5101EDD11046B6
:1049A000964620244FF0004209E052D05B00013CC3
:1049B00003EBD5734FEA52024FEA450537D0634502
:1049C00002EB0E01F1DD002901EB020E0ADBE046ED
:1049D000A3EB0C03A94288BF03F1FF33C4466D1A51
:1049E0001044E3E7BEF1000FF1DB0CF10108EFE743
:1049F00021F00042024329D0002945D10146CA0ACC
:104A0000153B4905002AFAD012F4801001D048E085
:104A100030465200D40200F10106F9D5C6F1200457
:104A200001FA06F6E1401F1A41EA02038EE72B4322
:104A300024D14408731003F17F53F20703F50013E8
:104A400048BF44F0004403EB075127463846BDE811
:104A5000F081A942AAD8002901EB020EC2DB9846D8
:104A60000023BBE702460B46FBF72EFD3A462B46DA
:104A7000FBF774FB07463846BDE8F081411C16BFC2
:104A8000421C01365408D5E70246FBF765FB024697
:104A90000B46FBF743FE0746D8E71A4621463B463E
:104AA000B2E70E4620244FF0FF30BBE70000F07F56
:104AB00021F000431946704741F0004101F5801094
:104AC000C00F70470020704700200149704700BFA9
:104AD0000000F87F2DE9F041C1F30A57A7F2FF3536
:104AE000132D82B002460B460C464FEAD17806469B
:104AF00032DC002D4DDB3B49294103EA0100104324
:104B000025D049080B4052EA03060BD04FF480230E
:104B1000132D0CBF4FF00046002624EA010143FA92
:104B200005F40C433049234601EBC808D8E9004599
:104B3000324620462946FBF711FBCDE90001DDE9AD
:104B4000000122462B46FBF707FB02460B461046A8
:104B5000194602B0BDE8F081332D07DDB5F5806F51
:104B6000F5D1FBF7FBFA02460B46F0E74FF0FF31B9
:104B7000A7F21347F9400842E9D049080842D1D0CA
:104B80004FF0804320EA010143FA07F741EA0706A4
:104B9000C8E721F000410143D9D0C3F313031E43FA
:104BA00073423343640C1B0B640403F4002343EA95
:104BB00004010B460C4901EBC801D1E90045204630
:104BC0002946FBF7CBFACDE90001DDE900012246D9
:104BD0002B46FBF7C1FA21F00041024641EAC873B7
:104BE000B5E700BFFFFF0F004860000800000000AD
:104BF000F8B5C1F30A5304460D460E4617460BBBE3
:104C0000034621F0004633431BD02F4B0022FBF715
:104C10005BFC2E4B04469F420D4637DB0E46C1F32C
:104C20000A53363B40F2FE723B4493421ADC002B9F
:104C300011DD26F0FF4626F4E00646EA035520463D
:104C40002946F8BD40F2FF729342EBD102460B4673
:104C5000FBF784FAF8BD13F1350F1DDA4CF250332F
:104C60009F420CDD14A1D1E9000122462B4600F041
:104C700031F811A3D3E90023FBF726FCF8BD224647
:104C80000FA1D1E900012B4600F024F80CA3D3E9D1
:104C90000023FBF719FCF8BD26F0FF4626F4E006DA
:104CA000363346EA0355204629460022084BFBF7D7
:104CB0000BFCF8BDAFF300809C7500883CE4377EA8
:104CC00059F3F8C21F6EA50100005043B03CFFFF2E
:104CD0000000903C03F0004321F0004242EA03014F
:104CE000704700BF014B1868704700BF20000020CC
:104CF00070B500250C4E0D4CA41BA410A54209D183
:104D000001F022F900250A4E0A4CA41BA410A5426A
:104D100005D170BD56F8253098470135EEE756F8B5
:104D2000253098470135F2E7146200081462000844
:104D3000146200081862000803460244934200D13E
:104D4000704703F8011BF9E70EB44FF4017230B558
:104D50009CB01FAC54F8045BADF814200290069090
:104D6000FCF75CF80B4B03900B9300230F93149309
:104D70004FF6FF7307900848ADF816302A462346D1
:104D800002A90068019400F0D5F91CB0BDE83040DC
:104D900003B070479D4D00082000002000207047A0
:104DA00000B59BB0009104916FF000410591029114
:104DB00005490391694600F06DF80022009B1A70C6
:104DC0001BB05DF804FB00BF0802FFFF13460A4654
:104DD000014602480068FFF7E3BF00BF2000002043
:104DE0002DE9F0478E6882469E420C4690469946D1
:104DF00037D88A8912F4906F31D002232568096967
:104E00006F1A656905EB450595FBF3F509F101039B
:104E10003B449D4238BF1D46530530D5294600F01E
:104E2000DDFF064650B90C234FF0FF30CAF80030C2
:104E3000A38943F04003A381BDE8F0873A46216986
:104E400000F05CFFA38923F4906343F08003A38107
:104E500026613E4426604E466561ED1BA5604E45C9
:104E600000D94E4632464146206800F052FFA36802
:104E700000209B1BA36023681E442660DCE72A46B3
:104E800001F006F806460028E2D12169504600F0FC
:104E900059FFC8E72DE9F04F9DB003938B898046F9
:104EA0001D060C4616460FD50B696BB9402100F064
:104EB00095FF2060206128B90C23C8F800304FF01E
:104EC000FF30C7E0402363610023099320238DF85E
:104ED000293030234FF0010B8DF82A3037463D46FC
:104EE00015F8013B0BB1252B3ED1B7EB060A0BD0D1
:104EF0005346324621464046FFF772FF013000F02C
:104F0000A480099B534409933B78002B00F09D80BB
:104F100000234FF0FF32CDE90523049307938DF86A
:104F200053301A932F46052217F8011B4F4800F003
:104F3000D7FE049BD0B9D90644BF20228DF8532058
:104F40001A0744BF2B228DF853202A782A2A15D01D
:104F50002F4600200A25079A394611F8013B303BBD
:104F6000092B4DD9B8B10FE02F46B8E73F4A3D466F
:104F7000801A0BFA00F018430490D3E7039A111D2E
:104F800012680391002A01DB079204E0524243F0C9
:104F90000203079204933B782E2B0CD17B782A2BAB
:104FA00033D1039B02371A1D1B680392002BB8BF35
:104FB0004FF0FF3305932E4D03223978284600F039
:104FC0008FFE38B14023401B03FA00F0049B0137E9
:104FD000034304933978062226487E1C8DF8281056
:104FE00000F07EFE002838D0234B13BB039B073311
:104FF00023F0070308330393099B4B4409936DE7A0
:1050000005FB023201200F46A6E700230A251946B8
:1050100001370593384610F8012B303A092A03D995
:10502000002BC8D00591C6E705FB012101230746E7
:10503000F0E703AB00932246104B04A94046AFF3C0
:105040000080B0F1FF3F8146D6D1A3895B063FF5D2
:1050500036AF09981DB0BDE8F08F03AB0093224630
:10506000064B04A9404600F02BFAEAE75860000816
:105070005E6000086260000800000000E14D00086A
:1050800038B54B1C144603D14FF0FF35284638BDC8
:105090009389CDB223F020039381636B52688BB167
:1050A000A36B934208DD23685A1E226003F8015C5B
:1050B000636801336360E9E7214600F0B5FD00282D
:1050C000F1D0E1E72169236851B1994208D213F880
:1050D000011CA94204D1013B013223606260D5E783
:1050E000C4E90F3204F1440363630323A36323463B
:1050F00003F8465F23600123DCE710B50C46496BDB
:1051000069B104F14403994201D000F01BFE002074
:10511000236C6063636013B1E36B236010BD23698C
:105120004FF0FF30236000236360A38943F0200326
:10513000A381F3E72DE9F04FADF5257D0193002321
:1051400006460C4692460A27469347939D4B0DF11F
:105150000C08A2939C4BDFF87492CDF82081A393A6
:105160009AF80030002B00F02A81554600F098FD97
:1051700015F801BB5844437813F008031CD063684A
:10518000002B12DD00F08CFD23681A781044427861
:10519000120701D4AA46E3E7479A01330132479246
:1051A00062682360013A6260E9E7A39B21463046CA
:1051B00098470028E6D0EDE7BBF1250F40F082804C
:1051C000459343939AF801302A2B03D110230AF117
:1051D00002054393AA4615F8011BA1F13002092AE2
:1051E00022D90322794800F07BFD38B1A0EB0903F6
:1051F0000120AA469840439B184343909AF80030F8
:105200000AF10105672B2BD8652B80F09F80472B77
:1052100010D8452B80F09A80002B6CD0252B51D0D4
:1052200003234497499327E0459B07FB0313303B37
:105230004593CFE75B2B6AD00CD8582BF0D1439A1B
:1052400042F400724392102244926E2B8CBF0423CE
:10525000032310E0632B65D0642BE1D14497F4E77E
:10526000702B4BD026D86E2B62D04CD8692BD7D15F
:1052700000234493032349936368002B68DD439B19
:10528000590607D400F00CFD23681A7810444278C0
:10529000120764D4499B022B73DC01AB224643A95D
:1052A000304600F01FFA012800F0898002287FF4C0
:1052B00071AF1DE0752BD1D0782BC0D0732BAFD13F
:1052C0000223D8E76368002B0CDD23681A785A455F
:1052D00075D1013362682360479B013A01336260F4
:1052E000479357E7A39B2146304698470028ECD0C8
:1052F0004698002859D14FF0FF305CE0439A42F0C5
:10530000200243929BE7082344930423B3E72946F2
:10531000404600F03FFB439B054643F04003439368
:105320000123A8E7439B43F0400343930023A2E7F4
:105330004398C3063FF52EAF019B479A191D019173
:105340001B68C0074CBF1A801A6023E7052392E749
:10535000A39B214630469847002890D0C8E7479A3B
:10536000013247926268013A002A626002DD01332D
:10537000236087E7A39B214630469847002881D0C9
:10538000B6E7042B06DC01AB224643A9304600F009
:105390000BFA88E70E4B002B3FF4FCAE01AB224624
:1053A00043A93046AFF300807DE7A38913F0400F97
:1053B00018BF4FF0FF300DF5257DBDE8F08F469802
:1053C000F9E700BF81500008FB5000085E6000084C
:1053D000000000002DE9F04791461F468A680B69DE
:1053E00006469342B8BF1346C9F8003091F84320EF
:1053F0000C46DDF8208012B10133C9F80030236873
:10540000990642BFD9F800300233C9F80030256848
:1054100015F0060507D104F1190AE368D9F8002050
:105420009B1AAB4229DC94F843302268003318BF42
:10543000012392062ED404F1430239463046C04778
:10544000013021D02368E56803F00603042B18BF60
:105450000025D9F800204FF0000908BFAD1AA36855
:10546000226908BF25EAE5759342C4BF9B1AED186F
:105470001A344D451AD1002008E00123524639461E
:105480003046C047013003D14FF0FF30BDE8F08710
:105490000135C2E73020E11881F843005A1C94F826
:1054A00045102244023382F84310C4E70123224608
:1054B00039463046C0470130E6D009F10109D8E746
:1054C0002DE9F04301F1430C0C46097E85B06E29AD
:1054D0001746064698460C9A00F0B38022D86329F6
:1054E00036D00AD8002900F0B980582900F083800E
:1054F00004F1420584F8421032E0642901D06929A0
:10550000F6D120681368050603F104012AD51B684B
:105510001160002B03DA2D225B4284F843206F4890
:105520000A2239E0732900F09D8008D86F2920D025
:105530007029DDD1236843F02003236003E075293F
:1055400017D07829D4D17823654884F8453055E0C0
:10555000136804F14205191D1B68116084F842307C
:1055600001238CE01B6810F0400F116018BF1BB2C4
:10557000CFE713682568181D1060280601D51B6841
:1055800002E06806FBD51B886F2914BF0A22082297
:105590005248002184F843106568002DA560C0F2D0
:1055A0009580216821F004012160002B3DD1002D60
:1055B00040F08E806546082A0BD12368DB0708D5AA
:1055C000236962689A42DEBF302305F8013C05F189
:1055D000FF35ACEB05032361CDF800803B4603AA01
:1055E00021463046FFF7F6FE01304DD14FF0FF3037
:1055F00005B0BDE8F083394884F845101368216888
:105600001D1D1B6815600A060BD5CA0744BF41F073
:10561000200121601BB9226822F0200222601022A2
:10562000B7E74D0648BF9BB2EFE76546B3FBF2F123
:1056300002FB1133C35C05F8013D0B460029F5D18F
:10564000B9E713682568181D6169106028061B6892
:1056500001D5196002E06A06FBD519800023654672
:105660002361B9E71368191D11601D686268002184
:10567000284600F035FB08B1401B60606368236179
:10568000002384F84330A7E723692A463946304689
:10569000C0470130AAD023689B0713D4E068039B5E
:1056A0009842B8BF1846A3E701234A463946304618
:1056B000C04701309AD00135E368039A9B1AAB4288
:1056C000F2DCEBE7002504F11909F5E7002BACD17A
:1056D000037804F1420584F842306CE76960000801
:1056E0007A6000082DE9F04115468A6880460C462C
:1056F00032B98A69002A14BF4FF0FF3201228A6052
:1057000000262268D1065FBF1A68111D196017684C
:10571000A369DBB1012B07D12B6862691B78D35CCD
:10572000A3B9002E31D106E0022B07D0002E2CD1D8
:10573000A369012B29D10120BDE8F08100F0B0FA66
:105740002B681B78184443781B07EFD42368013675
:10575000DA065EBF2B681B783B702A686B6802F123
:1057600001022A60A26803F1FF3302F1FF326B608D
:1057700058BF0137A26042B1002BC9DCD4F8803198
:105780002946404698470028C2D0236813F01003EA
:1057900005D1E2680132E260A26902B13B7023697F
:1057A00000201E442661C7E72DE9F04F0C469A46BB
:1057B000744B87B08346164693E8070003ABA7688F
:1057C00083E80700704BA169704A04F11C090329A2
:1057D00008BF1A467B1EB3F5AE7F84BF40F25D134F
:1057E000A360236888BF6FF4AE7543F450632360F1
:1057F00098BF00274B464FF00008009288BF7F19E2
:105800003168019303AB53F828000222097800F0B5
:1058100067FA019B30B3B8F1010F5AD162682AB917
:1058200008212268616042F400722260226822F43A
:10583000A0622260A268511EA1609AB132685D1C0C
:10584000511C316012781A707368013B002B736031
:1058500007DCD4F88031314658469847002840F09C
:1058600087802B4608F10108B8F1030FC8D16268A0
:105870000AB90A226260626845496069891A01931F
:1058800000F088F8019B4FF000081D46A3682268CD
:10589000002B3BD03168606991F800C010F80C0013
:1058A000002833D0BCF1300F21D110051FD508F1ED
:1058B000010817B10133013FA3607368013B002B5E
:1058C00073601CDD336801333360A368013BA36060
:1058D000DCE7B8F1020FADD1226802F4C061B1F586
:1058E000007FBFD1102142F480726160A1E722F4F1
:1058F000106222600B78013505F8013CDDE7D4F831
:1059000080313146584698470028DED02368D905B3
:105910000CD54D4508D915F8011C6F1ED4F87C3103
:105920003246584698473D464D4529D0226812F0E8
:10593000100213D12A70636849465846009EB0474A
:10594000DAF8003021681A1DCAF8002011F0200F83
:105950001B6810D01860E3680133E3600020A5EBFA
:105960000905A84425694544256107B0BDE8F08FC5
:105970004FF00008CAE7CA074CBF18801860EAE772
:105980000120F2E78C5F0008ED5A0008055C000872
:105990009B60000870B50B78441E5E2B13BF4A1C39
:1059A0008A1C4B78002108BF012100F1FF0504F893
:1059B000011FAC42FBD113B9013A104670BD81F012
:1059C0000104C454511C11F8015C4E1E2D2D0A46D1
:1059D00006D05D2DF1D00DB93246EEE72B46F0E74B
:1059E0000E785D2EFAD0B342F8DC01339E42C454E7
:1059F000FBDC0231E7E72DE9F04780468946924615
:105A00001E460F463D46089815F8014B00F044F934
:105A10002044437813F0080332D12D2C32D10122D7
:105A20007C78BD1C002E5DD0102E09D1302C07D102
:105A30002B7803F0DF03582B4FD110266C780235FA
:105A4000002A14BF4FF000416FF000410027B1FB66
:105A5000F6FC384606FB1C1EA4F13003092B17D8B0
:105A60001C46A64223DD7B1C07D084451CD301D1F4
:105A7000A64519DB012700FB064015F8014BEBE7B3
:105A80002F46BFE72B2C04BFBD1C7C781A46C9E704
:105A9000A4F14103192B01D8373CE2E7A4F16103DB
:105AA000192B04D8573CDCE74FF0FF37E5E77B1CA8
:105AB00008D122230846C8F80030BAF1000F07D1F8
:105AC000BDE8F08702B14042BAF1000FF8D00FB143
:105AD00005F1FF39CAF80090F2E73024002EAFD16B
